:100000000C9434000C943E000C943E000C943E0082
:100010000C943E000C943E000C943E000C943E0068
:100020000C943E000C943E000C943E000C943E0058
:100030000C943E000C943E000C943E000C943E0048
:100040000C943E000C943E000C943E000C943E0038
:100050000C943E000C943E000C943E000C943E0028
:100060000C943E000C943E0011241FBECFEFD8E04C
:10007000DEBFCDBF0E9440000C9480000C940000B5
:10008000209A219A229A289A2FEF83EC99E0215006
:1000900080409040E1F700C00000299A2FEF83ECE8
:1000A00099E0215080409040E1F700C000002A9A7A
:1000B0002FEF83EC99E0215080409040E1F700C0A1
:1000C000000028982FEF83EC99E021508040904069
:1000D000E1F700C0000029982FEF83EC99E0215050
:1000E00080409040E1F700C000002A982FEF83EC99
:1000F00099E0215080409040E1F700C00000C3CF5C
:04010000F894FFCFA1
:00000001FF
